:100000000C942A000C943C000C943C000C943C0092
:100010000C943C000C943C000C943C000C943C0070
:100020000C943C000C943C000C943C000C94930207
:100030000C943C000C943C000C943C000C943C0050
:100040000C943C000C943C000C943C000C943C0040
:100050000C943C0011241FBECFE5D8E0DEBFCDBF1D
:1000600022E0A0E6B0E001C01D92A336B207E1F79E
:100070000E9448000C9497040C94000061E080E01A
:100080000E94E100089562E080E00E94E10008958E
:10009000CF93DF93CDB7DEB72D970FB6F894DEBFC1
:1000A0000FBECDBF19828FEF8B838FE08A83CE0185
:1000B00001960E9489001C8288EE93E0A0E0B0E0E7
:1000C0008F839887A987BA878EE390E09D878C8776
:1000D00081E08E838D83CE0104960E94D702CE01EB
:1000E00005960E942F0384EF91E0A0E0B0E08F839B
:1000F0009887A987BA8783E490E09D878C8782E000
:100100008E831D82CE0105960E942F030E94B703A5
:10011000FDCFFC0181E0309709F480E090819130BF
:10012000B1F028F0923019F1933089F140C09281FA
:10013000911106C02AB39181909592239ABB08959C
:100140009F3FB9F52AB39181922B9ABB0895928172
:10015000911106C027B391819095922397BB089582
:100160009F3F49F527B39181922B97BB08959281C8
:10017000911106C024B391819095922394BB089568
:100180009F3FD9F424B39181922B94BB089592811F
:10019000911106C021B391819095922391BB08954E
:1001A0009F3F69F421B39181922B91BB089580E028
:1001B000089580E0089580E0089580E0089580E04B
:1001C0000895813059F028F0823069F0833081F051
:1001D00014C08BB368276BBB81E0089588B3682790
:1001E00068BB81E0089585B3682765BB81E0089509
:1001F00082B3682762BB81E0089580E00895FC0126
:1002000081E0309709F480E090819130A1F120F0F5
:10021000923009F459C070C09181923039F493B78B
:10022000926093BF93B7946093BF11C0913051F423
:1002300093B7916093BF93B7946093BF93B7926065
:1002400093BF05C0911103C0938190936400928184
:10025000913059F499B7916099BF248135813093D9
:1002600061002093600078940895911148C099B777
:100270009E7F99BF08959181923039F49EB5926026
:100280009EBD9EB591609EBD11C0913051F493B753
:10029000916093BF93B7946093BF93B7926093BFFD
:1002A00005C0911103C093819093630092819130B6
:1002B00029F499B7937C946099BF089591111FC058
:1002C00099B7937C99BF089591812FEF290F223020
:1002D000A8F0911103C093819093620092819130B4
:1002E00029F499B79F73906499BF0895911107C03D
:1002F00099B79F7399BF089580E0089580E00895AD
:10030000813009F45AC020F0823009F4A5C0F5C04C
:1003100080916400823021F128F4882359F08130E3
:10032000A1F047C0863079F18730C1F1843009F0FF
:1003300040C01EC083B78E7F83BF83B78D7F83BFCE
:1003400083B78B7F83BF81E035C083B7816083BF74
:1003500083B78B7F83BF83B78D7F83BF81E02AC044
:1003600083B7826083BF83B78B7F83BF81E022C066
:1003700083B7826083BF83B7816083BF83B78B7F7E
:1003800083BF81E017C083B7846083BF83B78D7F4D
:1003900083BF83B78E7F83BF81E00CC083B7846047
:1003A00083BF83B7816083BF83B78D7F83BF81E0C5
:1003B00001C080E0609562BF01C081E09091630060
:1003C000923011F128F4992359F0913099F046C0F8
:1003D000963071F19730B1F1943009F03FC01EC0F2
:1003E0009EB59D7F9EBD9EB59E7F9EBD9EB59B7F0B
:1003F0009EBD35C09EB591609EBD9EB59D7F9EBD44
:100400009EB59B7F9EBD2BC09EB592609EBD9EB546
:100410009E7F9EBD9EB59B7F9EBD21C09EB5926076
:100420009EBD9EB591609EBD9EB59B7F9EBD17C033
:100430009EB594609EBD9EB59E7F9EBD9EB59D7FE0
:100440009EBD0DC09EB594609EBD9EB591609EBD43
:100450009EB59D7F9EBD03C081E001C080E090916C
:100460006200923011F128F4992359F0913099F0FB
:1004700046C0963071F19730B1F1943009F03FC029
:100480001EC095B59E7F95BD95B59B7F95BD95B5D5
:100490009D7F95BD08959EB591609EBD9EB59B7F45
:1004A0009EBD9EB59D7F9EBD08959EB592609EBDEA
:1004B0009EB59B7F9EBD9EB59E7F9EBD08959EB5B9
:1004C00091609EBD9EB592609EBD9EB59B7F9EBD78
:1004D00008959EB594609EBD9EB59E7F9EBD9EB5BF
:1004E0009D7F9EBD08959EB594609EBD9EB5916012
:1004F0009EBD9EB59D7F9EBD089581E0089580E0DC
:100500000895813039F018F0823041F00AC062BF9E
:1005100081E008957DBD6CBD81E0089564BD81E0FA
:10052000089580E0089578941F920F920FB60F926D
:1005300011242F933F934F935F936F937F938F93E8
:100540009F93AF93BF93EF93FF93E0916000F0917F
:1005500061000995FF91EF91BF91AF919F918F91AC
:100560007F916F915F914F913F912F910F900FBEAF
:100570000F901F9018958FEF80936C00809167000B
:1005800090916800A0916900B0916A000196A11D48
:10059000B11D8093670090936800A0936900B093A9
:1005A0006A0068E070E080E00E94810208951F9375
:1005B000CF93DF9300D000D000D0CDB7DEB720912D
:1005C00066002130F1F121E0209366000097D9F117
:1005D000FC018081813091F018F08230E9F02BC06D
:1005E00010926D00198281E08B831A8284E08C83E3
:1005F0008BEB92E09E838D8310E01EC081E08093A0
:100600006D0089838B831A8284E08C838BEB92E06C
:100610009E838D8310E010C082E080936D008983FB
:1006200081E08B831A8284E08C838BEB92E09E8343
:100630008D8310E001C01DEFCE0101960E94FF00E6
:1006400003C01EEF01C01FEF812F26960FB6F8944E
:10065000DEBF0FBECDBFDF91CF911F9108950F93E5
:100660001F93DC01892B09F47EC05091A000552313
:1006700001F111964C911197E2EAF0E02FEF250F6E
:1006800030E0C901880F991F880F991F880F991FA3
:10069000280F391F25553F4F80E06BEF9081941351
:1006A00001C0862F3996E217F307C1F78B3F11F48B
:1006B0005BC080E0E0916B00EE2361F1E150E093DC
:1006C0006B00F0E0E259FF4F208130E011969C91E1
:1006D0001197F901EE0FFF1FEE0FFF1FEE0FFF1F27
:1006E000E20FF31FEF55FF4F918312964D915D91ED
:1006F0006D917C91159742835383648375839C919C
:10070000908317962D913C9118973087278392E01C
:1007100096832AC0252F30E011969C911197F901FC
:10072000EE0FFF1FEE0FFF1FEE0FFF1FE20FF31F75
:10073000EF55FF4F918312960D911D912D913C9194
:10074000159702831383248335839C919083179696
:100750002D913C9118973087278392E096835F5FB5
:100760005093A00001C08CEF1F910F9108950F933B
:100770001F93CF93DF9380916500813049F081E032
:100780008093650067EF70E080916D000E948001AA
:1007900080916C008F3F09F094C010926C008091A2
:1007A000A000882309F497C010E001E0C12FD0E039
:1007B000FE01EE0FFF1FEE0FFF1FEE0FFF1FEC0FEE
:1007C000FD1FEF55FF4F8081811133C0609167009D
:1007D000709168008091690090916A00FE01EE0FAF
:1007E000FF1FEE0FFF1FEE0FFF1FEC0FFD1FEF555A
:1007F000FF4F22813381448155810E947504672B0C
:10080000682B692B09F042C0FE01EE0FFF1FEE0FAF
:10081000FF1FEE0FFF1FEC0FFD1FEF55FF4F8681EF
:100820008230A1F5EF010780F085E02D09950E8358
:100830002DC0813059F560916700709168008091FA
:10084000690090916A00FE01EE0FFF1FEE0FFF1F7F
:10085000EE0FFF1FEC0FFD1FEF55FF4F228133817D
:10086000448155810E947504672B682B692B71F4B4
:10087000CE01880F991F880F991F880F991FC80FE5
:10088000D91FCF55DF4FEF81F8850995809167001B
:1008900090916800A0916900B0916A0080349C49F1
:1008A000A105B10541F41092670010926800109202
:1008B000690010926A001F5F8091A000181708F469
:1008C00075CF8091A000882341F090916B0089132F
:1008D00006C089EF05C089EF03C089EF01C080E041
:1008E000DF91CF911F910F910895A1E21A2EAA1BBB
:1008F000BB1BFD010DC0AA1FBB1FEE1FFF1FA217D0
:10090000B307E407F50720F0A21BB30BE40BF50BCC
:10091000661F771F881F991F1A9469F76095709555
:10092000809590959B01AC01BD01CF010895F8948D
:02093000FFCFF7
:00000001FF
